:020000040800F2
:10000000A818002089010008950D0008AD0C000813
:10001000910D000879030008311C00080000000061
:10002000000000000000000000000000011C0008AB
:100030007D030008000000000B020008051C0008FA
:10004000A3010008A3010008A3010008A301000800
:10005000A3010008A3010008A3010008A3010008F0
:10006000A3010008A3010008A3010008A3010008E0
:10007000A3010008A3010008A3010008A3010008D0
:10008000A3010008A3010008A3010008A3010008C0
:10009000A3010008A3010008A3010008A3010008B0
:1000A000A3010008A3010008A3010008A3010008A0
:1000B000A3010008A3010008A3010008A301000890
:1000C000A3010008A3010008A3010008A301000880
:1000D000A3010008A3010008A3010008A301000870
:1000E000A3010008A3010008A301000800F002F822
:1000F00000F03AF80AA090E8000C82448344AAF188
:100100000107DA4501D100F02FF8AFF2090EBAE885
:100110000F0013F0010F18BFFB1A43F0010318473B
:100120004C1D00006C1D0000103A24BF78C878C137
:10013000FAD8520724BF30C830C144BF04680C60ED
:10014000704700000023002400250026103A28BF35
:1001500078C1FBD8520728BF30C148BF0B60704739
:100160001FB51FBD10B510BD00F0CCF81146FFF74C
:10017000F7FF01F07DFD00F0EAF803B4FFF7F2FFAE
:1001800003BC00F0F1F80000094880470948004727
:10019000FEE7FEE7FEE7FEE7FEE7FEE7FEE7FEE737
:1001A000FEE7FEE704480549054A064B7047000094
:1001B0002D1C0008ED000008A8120020A81800203F
:1001C000A8140020A8140020EFF3108072B6704726
:1001D00080F3108870471D484FF0FF010170002028
:1001E00080F309881A48012101701A484FF08051A4
:1001F000016062B6FEE717484FF08051016070471A
:1002000014484FF080510160704772B6EFF30980D7
:1002100028B1203880E8F00F0F490968086000B560
:100220000E4880475DF804EB0D480E490A780270CD
:1002300009480D490A680260106890E8F00F203004
:1002400080F309884EF0040E62B6704722ED00E09C
:100250007E00002004ED00E0880000209D160008CC
:10026000800000207F0000208C0000204FF0000262
:100270000429C0F0128010F0030C00F01B80CCF1B8
:10028000040CBCF1020F18BF00F8012BA8BF20F826
:10029000022BA1EB0C0100F00DB85FEAC17C24BF7A
:1002A00000F8012B00F8012B48BF00F8012B704724
:1002B0004FF0000200B5134694469646203922BFFF
:1002C000A0E80C50A0E80C50B1F12001BFF4F7AF4A
:1002D000090728BFA0E80C5048BF0CC05DF804EB2C
:1002E000890028BF40F8042B08BF704748BF20F89A
:1002F000022B11F0804F18BF00F8012B7047704798
:1003000070477047754600F02BF8AE460500694609
:10031000534620F00700854618B020B5FFF742FF8E
:10032000BDE820404FF000064FF000074FF00008F6
:100330004FF0000BAC46ACE8C009ACE8C009ACE833
:10034000C009ACE8C00921F007018D46704710B51F
:100350000446AFF300802046BDE81040FFF70DBF14
:10036000004870471000002001491820ABBEFEE78E
:100370002600020070470000FEE700007047000002
:100380002DE9F04F82B00E68002E00F0038141F29B
:100390000042C4F20102042340F2004E904208BF22
:1003A00003234FF6FF7CC4F2010E009300240123C7
:1003B000C1F2100C4FF0000A4FF0000949E000BFF5
:1003C000012704F00C030F229A402BEA020207FADD
:1003D00003F34FEA9A051A4346F82520D1F804B0F2
:1003E00040F20C455FEACB22DEF8082054BF22EA37
:1003F000080242EA0802C4F20105CEF808202A6881
:100400005FEA8B2354BF22EA080242EA08022A600C
:100410005FEA8B33DEF8042054BF22EA080242EA86
:1004200008025FEACB33CEF80420DEF800204FF05C
:10043000010354BF22EA080242EA0802CEF8002073
:100440000E680AF1010A36FA0AF204F1040400F017
:10045000A18003FA0AF816EA080FF1D04E68664543
:1004600012DC122E56D8DFE806F0350B45495555FB
:1004700055555555555555555555554D510000BF78
:10048000D1F80C9046E000BF4FF6FF72C1F2210296
:1004900096420FDC0022C1F2110296421AD00022CD
:1004A000C1F21202964215D00022C1F221029642F8
:1004B00010D02FE00022C1F2220296420AD0002280
:1004C000C1F23102964205D00022C1F232029642B8
:1004D00020D100BF8A684AB1012A14BFC0F8148035
:1004E000C0F810804FF0080914E000BF4FF0040975
:1004F00010E000BFCA6802F108090BE04FF00009E4
:1005000008E000BFCA6802F1040903E0CA6802F10A
:100510000C0900BF22460646BAF1080F24BF203A54
:10052000043637680F25954027EA050509FA02F2D7
:100530002A433260CA79D2067FF582AF41F21803AE
:10054000C4F202031A68AEF57E7642F001021A6028
:100550001A6802F001020192019A2AF0030256F889
:1005600002B040F60002C4F20102904210D040F600
:100570000042C4F2010290423FF422AF41F2000275
:10058000C4F20102009F904208BF022719E700BF92
:10059000002716E702B0BDE8F08F0000C26802EA4B
:1005A0000103914341EA034101617047002A08BFFA
:1005B000090401617047000041F2A020C2F200006E
:1005C0000068704740F2000041F2A021C2F2000032
:1005D000C2F2000100780A68104408607047000009
:1005E00080B542F20000C4F20200016841F010013F
:1005F0000160032000F07AF80F2000F005F800F009
:1006000027F8002080BD0000B0B540F20801C2F21A
:100610000001096844F6D352C1F26202A1FB021242
:100620000446900900F02CFB0F2C4FF001050CD86C
:1006300058B94FF0FF3021460022002500F02AF87B
:1006400040F20400C2F2000004602846B0BD000081
:1006500082B041F21800C4F202000168022241F0A7
:1006600001010160016801F00101019101994168F6
:1006700041F080514160406800F080500090009847
:100680000420C4F20100016862F31A61016002B043
:100690007047000010B54EF60C5CCEF2000CDCF892
:1006A0000030C3F3022E8EF00704042C28BF04246C
:1006B000BEF103034FF0FF3E0EFA04F438BF0023EF
:1006C000A14399400EFA03F39A43114300F00F023D
:1006D00000F160430901043A03F5644362440028D1
:1006E00048BF02F10C03197010BD00004EF60C510A
:1006F000CEF200010A684FF6FF031A4060F30A22A7
:1007000042F0806040F0FD70086070472DE9F043D2
:1007100081B0002800F0858042F20008C4F202088F
:100720000446D8F800000D4600F0070088420CD2BD
:10073000D8F8000020F007002843C8F80000D8F8D7
:10074000000000F00700A8426BD1206841F20409C4
:100750008107C4F2020917D5410705D5D9F8001061
:1007600041F4E061C9F80010010705D5D9F800107F
:1007700041F46051C9F80010D9F80010A26821F0C6
:10078000F0011143C9F80010C00741D1D8F80000AA
:1007900000F00700A8420CD9D8F8000020F00700AC
:1007A0002843C8F80000D8F8000000F00700A8426D
:1007B00037D12068410707D5D9F80010E26821F445
:1007C000E0611143C9F80010000708D5D9F800000E
:1007D000216920F4605040EAC100C9F80000D9F84E
:1007E000002002F00C00082841F20020C0F27A003C
:1007F00050D141F65A63C2F38341C0F60003595CFD
:10080000D2033BD440F60010C0F23D00484341E023
:10081000606802280AD001282AD159F8041C8903EB
:1008200008D4012001B0BDE8F08300BF59F8041CD2
:100830008901F6D5D9F8001021F003010843C9F861
:100840000000FFF7B9FE064641F28837D9F80000EC
:10085000616800F00C00B0EB810F97D0FFF7ACFEA1
:10086000801BB842F2D9032001B0BDE8F08300BF7D
:1008700059F8041C8907D4D5DCE700BFD9F800205B
:1008800041F65853C2F34042C0F600039A5C484315
:10089000B0FBF2F0D9F8001041F64852C1F3031151
:1008A000C0F60002515C40F2080220FA01F140F269
:1008B0000400C2F200000068C2F200021160FFF7FB
:1008C000A3FE002001B0BDE8F08300002DE9F04157
:1008D00082B0002868D00446007841F20006C007C4
:1008E000C4F2020625D0706800F00C0004281BD06A
:1008F000706800F00C00082802D17068C00313D49F
:100900006068002800F06881B0F5A02F00F07C81BD
:10091000B0F5803F00F07C81306820F4803030609A
:10092000306820F4802076E13068800301D560686B
:10093000D0B32078800718D5706810F00C0F07D05E
:10094000706800F00C0008286ED17068C0036BD48A
:100950003068800702D52069012825D13068616997
:1009600020F0F80040EAC1003060207800071FD472
:100970002078400732D4E56995B1706800F00C002A
:10098000082840F08F80012D0ED07068216A00F495
:1009900080328A4208D1616A00F47010884203D123
:1009A000002002B0BDE8F081012002B0BDE8F08176
:1009B000A069002862D00020C4F242200121C0F8C2
:1009C0008014FFF7F9FD0546706A800700F18C80FE
:1009D000FFF7F2FD401B0228F6D92AE1F06910F07A
:1009E000805808D1F06940F08050F061F06900F063
:1009F00080500090009847F20007C4F20007386862
:100A0000C00529D4386840F480703860FFF7D4FD01
:100A1000054600BF3868C0051ED4FFF7CDFD401B5A
:100A20006428F7D905E100BF2069002840F20000E2
:100A3000C4F2422000F0828001210160FFF7BCFD7A
:100A4000054600BF306880073FF588AFFFF7B4FD6B
:100A5000401B0228F6D9ECE0E068002800F0808016
:100A6000052800F09780012800F09880306A20F077
:100A700001003062306A20F0040092E00020C4F2ED
:100A800042200021C0F88014FFF796FD054600BF04
:100A9000706A80077FF56CAFFFF78EFD401B022860
:100AA000F6D9C6E00027C4F2422700203866FFF7D7
:100AB00083FD022D05460BD13068800140F1BE80D8
:100AC000FFF77AFD401B02284FF00300F4D968E7D6
:100AD000306880017FF564AFFFF76EFD401B022890
:100AE0004FF00300F4D95CE740F20800C2F20000C6
:100AF000006844F6D351C1F26201A0FB0101480A2B
:100B0000019000BF00BF0198411E002801913FF4F1
:100B10002FAF00BF0198411E002801913FF428AF7C
:100B200000BF0198411E002801913FF421AF00BF92
:100B30000198411E00280191E4D119E700210160CC
:100B4000FFF73AFD054600BF306880077FF50DAF1F
:100B5000FFF732FD401B02284FF00300F4D920E7D5
:100B6000306A20F001003062306A20F00400306208
:100B7000FFF722FD054641F2883700BF306A800743
:100B800020D5FFF719FD401BB8424FF00300F5D9FF
:100B900007E700BF306A40F004003062306A40F07E
:100BA00001003062FFF708FD054641F2883700BFBB
:100BB000306A800706D4FFF7FFFC401BB842F7D924
:100BC00037E000BFB8F1000F7FF4D5AEF06920F038
:100BD0008050F061CFE600BF306820F48030306094
:100BE000306820F480203060FFF7E6FC054600BF47
:100BF000306880037FF59DAEFFF7DEFC401B642864
:100C00004FF00300F4D9CCE6306840F48020306027
:100C1000306840F480303060FFF7CEFC054600BFFE
:100C2000306880033FF585AEFFF7C6FC401B6428A3
:100C3000F6D9032002B0BDE8F08100BF206AB0F50C
:100C4000803F05D17168A26821F4003111437160C1
:100C50007168626A21F474111143084370600120C5
:100C60003866FFF7A9FC0446306880013FF598AE6E
:100C7000FFF7A2FC001B02284FF00300F4D990E616
:100C8000411E0020B0EB116F1CBF012070474EF2D7
:100C90001002CEF2000251604EF62351CEF2000156
:100CA000F0230B700721906011607047FEE7000091
:100CB00082B040F2700541F20004C2F20005C4F2B5
:100CC000010400BF6868A96802220131A9600121FE
:100CD0004FF4FA63009500F08BF820464FF4005172
:100CE000FFF75CFC642000F0DBFCEBE741F29824AA
:100CF000C2F200042068013020604FF4FA6000F076
:100D0000CFFCF7E741F29C24C2F2000420680130D6
:100D100020604FF47A7000F0C3FCF7E770B584B040
:100D200041F21800C4F20200016841F2000441F0EF
:100D3000100101600168C4F2010401F0100100918A
:100D400000990168002241F02001016001684FF420
:100D5000C04501F02001009100990168002641F092
:100D60000401016000684FF4C04100F004000090ED
:100D700000982046FFF71AFC0120CDE90106022069
:100D80000390694620460095FFF7FAFA04B070BD5B
:100D9000FEE70000FEE7000070B540F27C02C2F200
:100DA000000212780C462AB100251026284626702B
:100DB00070BD00BF0646FFF707FA40F2F441C2F2E9
:100DC00000010D6875B16A682E810A6005212970DD
:100DD00000263F216E606981FFF7FAF928462670E8
:100DE00070BD00BF7226FFF7F3F92846267070BD6C
:100DF0002DE9F04F87B00C4640F27C01C2F20001B1
:100E00000978DDF840A039B10024022120468AF893
:100E1000001007B0BDE8F08F054640F27D00C2F239
:100E20000000007840B100240D2120468AF800100F
:100E300007B0BDE8F08F00BF287805281AD11E46FC
:100E4000174602F07F09FFF7BFF9B9F1030F80469B
:100E500018D8DFE809F00323314500BF288924EAC8
:100E60000001A1425AD179B2B1F1FF3FDCBF20436A
:100E700028812CE00024012120468AF8001007B0C8
:100E8000BDE8F08F4046FFF7A3F900246F2120460C
:100E90008AF8001007B0BDE8F08F00BF288924EA67
:100EA000000BBBF1000F39D079B2B1F1FF3FDCBFCD
:100EB000204328811FE000BF288900EA0401A142E5
:100EC0002CD179B2B1F1FF3FDCBF6040288140F204
:100ED0008800C2F2000000688485404669E000BFD7
:100EE000288910EA040B19D079B2B1F1FF3FDCBFB9
:100EF00080EA0B00288140F28800C2F200000068FE
:100F0000A0F82CB04046FFF763F900215C4620466C
:100F10008AF8001007B0BDE8F08F00BF02A928468C
:100F200022464B46009600F04BFC4046FFF750F936
:100F300000F0F8FCFFF748F940F28801C2F2000126
:100F40000C6894F831604EB1DDE90232002784F874
:100F500031709AB11360B3B15A6014E079B2A48DC4
:100F6000B1F1FF3F25DCB9F1020F1FD3A9F1020156
:100F700001293FF688AF2989A14319E0059F002B7D
:100F80007B6018BF5A60049A09680024946281F853
:100F90003040FFF71DF90A21022E08BF0E2120461E
:100FA0008AF8001007B0BDE8F08F00BF29892143FF
:100FB0002981FFF70DF9002120468AF8001007B0BB
:100FC000BDE8F08F2DE9F04186B000F01FF940F246
:100FD000207440F27C07C2F20004C2F20007002530
:100FE00020464FF4CF613D623D807D72BD70BD6192
:100FF000FD617D71FD71C7E90A55A7F80350C7E986
:1010000003557D61FFF754F940F2A060C2F2000081
:1010100080214FF08008FFF74BF904F15C0060611C
:1010200004F1B800206704F58A70C4F8CC0004F518
:10103000B870C4F8280104F5E670C4F8840104F51A
:101040000A70C4F8E00104F52170C4F83C0204F50C
:101050003870C4F8980204F54F70C4F8F40204F52F
:101060006670C4F8500304F57D70C4F8AC0304F551
:101070008A60C4F8080404F2AC40C4F8640404F5BF
:10108000A160C4F8C00404F26450C4F81C0504F55F
:10109000B8603F26C4F8780504F21C6084F84C6000
:1010A00084F8A86084F8046184F8606184F8BC6105
:1010B00084F8186284F8746284F8D06284F82C632F
:1010C00084F8886384F8E46384F8406484F89C645A
:1010D00084F8F86484F8546584F8B065C4F8D405DD
:1010E00084F80C6684F868663C6340F2B434C2F25B
:1010F000000420464FF4A0717D62FFF7D9F804F197
:101100002000606004F14000606204F160006064EF
:1011100004F18000606604F1A000C4F8840004F1CA
:10112000C000C4F8A40004F1E000C4F8C40004F551
:101130008070C4F8E40004F59070E67384F82F60C2
:1011400084F84F6084F86F6084F88F6084F8AF6033
:1011500084F8CF6084F8EF60C4F8040184F80F616C
:1011600084F82F617C6300F067FB00F099FB00F0CE
:10117000BFFB40F69850C2F200004FF6FF71CDE978
:10118000001000F5FE7241F645300324C0F6000061
:1011900000211F23CDE90285049400F007F913A173
:1011A0000DF116021F2000F06DF940F69870C2F2A2
:1011B00000004FF6FE71CDE9001000F5FE7241F619
:1011C0006130C0F6000000211E23CDE902850494A1
:1011D00000F0ECF809A10DF117021E2000F052F901
:1011E00000F016F806B0BDE8F08100BF75432F4F40
:1011F000532D49492049646C6500000075432F4F09
:10120000532D494920537461740000007047000059
:101210007047000040F27C00C2F200008178012992
:1012200018BF70470178FF291CBF0131017070475A
:10123000B0B540F27C05C2F20005A878012818BFBD
:10124000B0BDFEF7C1FF2978044659B1481EC1B2AE
:101250002870B1FA81F0400938B92046BDE8B040A5
:10126000FEF7B6BF01200028F7D068780028F4D137
:10127000E87941F65A51C0F60001085C2A1892F844
:101280002820895C2A7901EBC001C8B29042E9703C
:10129000E3D040F2A061C2F2000151F82000816B5E
:1012A0002861013181636969481C6861FEF7A8FF04
:1012B0002046BDE8B040FEF78BBF000040F27C0046
:1012C000C2F200008178002918BF7047C17941F649
:1012D0005A52C0F60002515C431893F82830D25C91
:1012E00040F2A06302EBC101CAB2C2F2000353F89C
:1012F0002220C1700171C0E90322FEF76CBF00001B
:10130000704700002DE9F04184B01C4615460E469A
:101310000746FEF759FF40F27C01C2F2000109784E
:1013200031B1FEF755FF3C25284604B0BDE8F081F9
:1013300040F2A068C2F2000858F8241031B1FEF75C
:1013400047FF2825284604B0BDE8F081012148F870
:101350002410FEF73DFF384631462A46002300267A
:1013600000F016F90146204600220023CDE9006670
:10137000029600F06DFB58B10546FEF725FF48F8D0
:101380002460FEF725FF284604B0BDE8F08100BFC9
:1013900040F27E00C2F200000078012808BF00F091
:1013A000C1FA0025284604B0BDE8F0812DE9F04FD0
:1013B00083B01C4615460E460746FEF705FF40F271
:1013C0007C01C2F20001097831B1FEF701FF3C2532
:1013D000284603B0BDE8F08F40F2A06BC2F2000BCC
:1013E0005BF8241031B1FEF7F3FE2825284603B040
:1013F000BDE8F08FDDF84080DDE90DA901214BF853
:101400002410FEF7E5FE5FEAC8700AD0B9F1000FBC
:1014100018BF18F0020004D04FEA89015046FEF7C9
:1014200047FF384631462A46434600F0B1F80146A8
:101430000F980C9B019020465246CDF80090CDF8B5
:10144000088000F005FB58B10546FEF7BDFE0021FF
:101450004BF82410FEF7BCFE284603B0BDE8F08F21
:1014600040F27E00C2F200000078012808BF00F0C0
:1014700059FA0025284603B0BDE8F08F70470000F8
:1014800070470000F0B581B0144640F27C02C2F211
:101490000002127822B11226267001B0F0BD00BF02
:1014A0000E460746FEF790FEFF2F054606D140F296
:1014B0008800C2F20000006890F8327040F2A0602C
:1014C000C2F2000050F82770022F01D243260DE02F
:1014D000304600F099FA0F2802D9412606E000BFF5
:1014E00007F14C00314600F04FFA00262846FEF77F
:1014F0006FFE267001B0F0BD7047000070B5054664
:1015000000200C46C1E90000FEF75EFEFF2D06D16B
:1015100040F28801C2F20001096891F8325040F2AD
:10152000A061C2F2000151F82510012900D019B9BB
:10153000FEF74EFE432070BD0A8AD20704D1FEF7A3
:1015400047FE452070BD00BFD1E90265FEF740FEB1
:10155000306838B100208100281A8000C4E90010EA
:10156000002070BD002000BF06EB80014A684AB928
:101570008A684AB9CA684AB9096904300029F3D0AF
:10158000E9E700BF0130E6E70230E4E70330E2E7D5
:1015900070B56FF0010E4FF012334FF0033442E993
:1015A000044342E902E04FF006304FF005334FF0BC
:1015B000807C4FF002354FF001364FF0073442E99E
:1015C0000E30A2F1300042E90665C2F800C04FF0CB
:1015D000113C4FF0103E4FF009364FF0083580E8CF
:1015E00070404FF0043042E908C142F83C0D10460B
:1015F00070BD000070B50446FEF7E6FD40F28801BC
:10160000C2F20001096840F2A06391F8322021463D
:10161000FF2C08BF1146C2F2000353F82110012924
:1016200004D039B9FEF7D4FD482070BDFEF7D0FDD7
:10163000432070BDA4F1FF03121BB3FA83F3B2FA87
:1016400082F25B09520943EA020691F8342040F223
:10165000A40491F83530C2F20004A55C83F0FF03C6
:101660002B40A35409D140F28303C2F2000391F846
:1016700036201D7825EA02021A7091F8302042F0D7
:10168000080281F83020FEF7A3FD002E04BF0020E1
:1016900070BD00F047F9002070BD000070470000E9
:1016A000B0B538B3044640F27C00C2F200000078C6
:1016B000002818BFB0BDFEF787FD40F28801C2F2D6
:1016C0000001096840F2A40C91F8342091F835E04B
:1016D000C2F2000C1CF802508EF0FF032B400CF8F5
:1016E000023009D0CC85FEF773FDBDE8B04000F0B4
:1016F00019B900BFB0BD00BF40F28303C2F20003BE
:1017000091F836201D7825EA02021A70CC85FEF782
:101710005FFDBDE8B04000F005B9000070B500F015
:101720004DF8FEF751FD40F27C06C2F20006316A28
:1017300001313162FEF74CFDB07801283CD1B0791F
:1017400030B1012838D0022814BF00200120B07128
:10175000756A02E06D69FEF73BFD95F832001F28BF
:1017600008BF70BDFEF730FDE98D0029F2D00139C8
:101770000A04E985EED195F8301011F0370F0FBF4C
:10178000002201F0C80185F830100122090785F810
:101790003120DFD495F8341095F83620F3793144B0
:1017A00095F835401A4391F82830F27143EA040263
:1017B00081F82820CEE700BF70BD00007047000010
:1017C000B0B540F2880CC2F2000CDCF800E0049DD9
:1017D0009EF830400A8244F0200442688EF830407F
:1017E00000248EF83140AEF82E50CEF828108B74BD
:1017F00081E81440002AC86018BF5160DCF800205E
:10180000416092F8340040F2A40392F83510C2F21D
:1018100000031D5C81F0FF012940195418BFB0BDC1
:1018200040F28301C2F2000192F836000A7822EAFF
:1018300000000870B0BD000010B540F2F844C2F2DC
:10184000000420468C2100F023F80020224602F8F4
:10185000380F2262224602F8540F2146E2632246E4
:10186000207001F81C0F02F8700F606740F2F4401E
:1018700061603F21C2F200006181E184A4F842105E
:10188000A265A4F85E10A4F87A10046010BD0000F0
:10189000002908BF704780B5FEF7E8FC80BD000056
:1018A00010B540F28854C2F200042046B421FFF77C
:1018B000EFFF04F1240004F1480160603F20A162C1
:1018C00004F16C01A0822087E164A4F85C0004F1BB
:1018D0009001A4F88000A4F8A40040F2845021678D
:1018E0000021C2F20000C4F89410046010BD000092
:1018F00010B540F24064C2F2000420466021FFF7B8
:10190000C7FF0020214641F8480F204640F8301F0D
:10191000214641F8180F40F23C60C2F200002160FD
:10192000046010BD10B5FEF74FFC40F27C01C2F21E
:1019300000010A784B7804461A431FD1C87941F652
:101940005A52C0F60002105C0B1893F82830D25C93
:101950000B7902EBC002D0B29842CA700ED040F2AE
:10196000A062C2F2000252F82000826B08610132CC
:1019700082634A69501C4861FEF73DFC2046BDE881
:101980001040FEF725BC0000B0B50A7886464FF03F
:10199000000CDAB100230020CC180EF80320657883
:1019A0000EEB0302C5B15570A578EDB19570E578E1
:1019B00015B3D57022790430002A03F10403EBD16A
:1019C0009E44C0B28EF800C0B0BD00BF0020C0B2BF
:1019D0008EF800C0B0BD00BF40F0010002F1010E62
:1019E000C0B28EF800C0B0BD40F0020002F1020E9D
:1019F000C0B28EF800C0B0BD40F0030002F1030E8B
:101A0000C0B28EF800C0B0BD017889B1811C002041
:101A100011F8012C82B10A7892B14A78A2B18A7881
:101A20000430002A01F10401F2D1C0B2704700BFB6
:101A30000020C0B2704700BF40F00100C0B2704744
:101A400040F00200C0B2704740F00300C0B27047DF
:101A50002DE9F04F81B0984691468A460546FEF73B
:101A6000B3FB40F27C07C2F200073C6B002C61D054
:101A70006169DDF828B03963FEF7AAFB0B98211DD8
:101A800081E8010A0C9801222082E80884F83400D9
:101A900005F0070102FA00F084F8360002FA01F0BE
:101AA00084F835003F200026A4F84C00204684F836
:101AB0003250C4F82E60C4F800A0A4F8128084F854
:101AC000376084F83310C4E90766C4E90966C4E9DD
:101AD0000E66C4E91066A664FFF712FC2046FFF705
:101AE000CDFCFEF771FB40F2A062796AC2F20002FF
:101AF00042F8254061610029A66118BF8C6194F805
:101B0000341094F83630FE79394494F83520334354
:101B100091F828607D7A32437C6281F82820691C24
:101B20000024FB717972FEF753FB204601B0BDE83B
:101B3000F08F00BF4224FEF74BFB204601B0BDE80A
:101B4000F08F000040F27C04C2F20004FEF73CFB80
:101B5000A1690131A161FEF73BFBFFF791FCF5E7BD
:101B600082B040F27C05C2F20005687930B900BF4E
:101B7000C820FFF795FD68790028F9D0E86948F298
:101B80001F51C5F2EB11A0FB011251096328E96155
:101B900004D800202872FF20FFF72CFD40F2A06639
:101BA0006C46C2F2000602E06420FFF779FDFEF702
:101BB0000BFBA9690027E962AF61FEF709FBE86941
:101BC000E96AB1FBF0F0C0F164002872FFF794FC01
:101BD00003E000BF0137202FE6D0F8B22146FFF71F
:101BE0008DFC0028F6D156F827000228F2D3D0E960
:101BF000021201EB8201019AC0E91112EAE700002A
:101C00007047000080B541F20000C4F201004FF4BB
:101C10008041FEF7C3FCFEF7D5FCFFF7FBFAFFF7A8
:101C20007DFDBDE88040FFF703BB0000704700006A
:101C3000FEE70000FFF7C6F940F27004C2F20004AC
:101C400060882146FFF7A8F8606041F29810C2F260
:101C5000000000F1FC0241F6DD40C0F6000000216A
:101C60000A23FFF74FFBFFF729FB00BFFEE7000049
:101C700090B0FEF7B5FC00240120CDE90B44CDE97E
:101C8000094406900A904FF4E0104FF48031022589
:101C90000F9006A8CDE90714CDE90D51FEF716FE09
:101CA00020B1EFF3108072B6FEE700BF0F20CDE940
:101CB00001054FF48060CDE9040401A802210394DA
:101CC000FEF724FD20B1EFF3108072B6FEE700BFEF
:101CD000FFF724F8FFF7AEFFFEE7000010B5FEF7B0
:101CE00073FA044640F2B400C2F2000000F1FC02B4
:101CF00040F6B140C0F6000000210523FFF702FBCB
:101D000040F2B410C2F2000000F1FC0240F6ED40D7
:101D1000C0F6000000210623FFF7F4FA40F2B420D9
:101D2000C2F2000000F1FC0240F60550C0F60000CF
:101D300000210423FFF7E6FA0A20FFF75BFC2046A8
:101D4000BDE81040FEF744BA0000000000000000AB
:101D50000102030406070809010200000100020055
:101D60000100030001000200010004000100020064
:101D70000100030001000200010005000100020053
:101D80000100030001000200010004000100020044
:101D90000100030001000200010006000100020032
:101DA0000100030001000200010004000100020024
:101DB0000100030001000200010005000100020013
:101DC0000100030001000200010004000100020004
:101DD00001000300010002000100070001000200F1
:101DE00001000300010002000100040001000200E4
:101DF00001000300010002000100050001000200D3
:101E000001000300010002000100040001000200C3
:101E100001000300010002000100060001000200B1
:101E200001000300010002000100040001000200A3
:101E30000100030001000200010005000100020092
:101E40000100030001000200010004000100020083
:101E5000010003000100020001000203040506075F
:101E600008090A0B0C0D0E0F10100000901E000840
:101E7000000000201000000028010008A01E00083B
:101E80001000002098180000440100080000000025
:101E9000010000001000000000127A0000000000A5
:04000005080000ED02
:00000001FF
